:100000000094FF1FC1110100A1120100AD120100F7
:10001000B9120100C5120100D11201000000000058
:1000200000000000000000000000000000000000D0
:10003000DD120100000000000000000000000000D0
:10004000E9120100E9120100E9120100E9120100C0
:10005000E9120100E9120100E9120100E9120100B0
:10006000E9120100E9120100E9120100E9120100A0
:10007000E9120100E9120100E9120100E912010090
:10040000836900F114029A4210B40ED0016839B128
:10041000074CA34204D053F8144C214443F8141C55
:1004200041694B601960826142615DF8044B70471D
:100430004097FF1F2DE9F0472B4E2C4B2C4AD6F846
:1004400000C0D21A5CF802202A49DFF8B4A056F89E
:100450002220C3EB0108DAF804004244DFF8A4903C
:1004600002F110070823012857611761D360C9F80A
:100470000490C9F8009030DD9E463D46012102E01F
:10048000D2F80CE0156956F8043F0131434403F1FA
:100490001004814214616C60C3F80CE05F611D615F
:1004A000EED1154BC9F80C300F4D134B00245B688F
:1004B0000CEB08009847DAF804300134A34204DD5D
:1004C00055F804CFD9F80C30F1E7D9F80C30196899
:1004D0000A48BDE8F04710F04BBC074B0028C9F8AC
:1004E0000C30F4DDE0E700BF10D2FF1F7894FF1F4F
:1004F000C096FF1F8094FF1F0094FF1F644F0100F0
:10050000DCD1FF1F4097FF1F70B504460E46EFF386
:100510001083DB0720D50025D4F8A43004F1A00215
:1005200001209342C4F8846020700FD00C4A0D4B18
:100530000D481168C01A08580C4E0D4952F8200099
:10054000F268CB1A18442146D368984705B970BDA4
:10055000BDE8704010F01EBE10F01EFE0125DBE766
:1005600010D2FF1F7894FF1FC096FF1F4097FF1FF8
:100570008094FF1F03782DE9F041032B04464ED0F1
:10058000EFF31082D1073CD5022B4FF000063ED08E
:10059000294B2A492A481D68401A2A18976C4FF09F
:1005A00002084FF0000CA74284F80080C4F884C011
:1005B00020D0DFF8ACC06768DCF804C0674534DBE6
:1005C000D26C944216D0E26D28581E4D920753F813
:1005D0002000C1EB050107D5D4F8FC20002A1CDB64
:1005E00094451ADD53F82200174B0844DB68214676
:1005F0009B6898470EB9BDE8F081BDE8F04110F066
:10060000C9BD10F0C9FD23780126022BC0D10F48C7
:100610007F210F4A10F0D0FCECE714F06BFB0B4885
:1006200073210C4A0C4B10F09FFC08487B21094AAF
:100630000A4B10F099FC00BF10D2FF1F7894FF1FE7
:10064000C096FF1F8094FF1F4097FF1F004F0100BF
:10065000B44F0100084F0100784F0100944F010092
:10066000DCD1FF1F03782DE9F047032B054600F08E
:100670009080EFF31082D4077ED5022B4FF0000854
:1006800000F08280474B484948481C68401A2218AD
:10069000966C4FF0020E0027AE4285F800E0C5F8D8
:1006A000847066D0D26C954263D02458EA6D40487D
:1006B00053F82440411A900769D5D5F8FC20002A48
:1006C0006DDB3C484068824269DA53F822000844F6
:1006D000394B2946DB684FF001099B689847324B3C
:1006E000324F334A354EFF1AC3EB020A2C462046DE
:1006F00007F044FCA842044633D02378012BF6D1FE
:10070000D4F88430B342F2D1264B4FF0020C196872
:100710004FF0000ECA19906C84F800C0A042C4F8D3
:1007200084E0E4D0D26C9442E1D0E26DC9599207E2
:1007300053F8210009D5D4F8FC20002A2FDB1D49ED
:1007400049688A422BDA53F822001B4B2146DB68AA
:1007500050449B689847204607F010FCA842044686
:10076000CBD1B8F1000F01D010F014FD4846BDE820
:10077000F0874FF00109B2E710F00EFD2B784FF033
:100780000108022B7FF47EAF4FF00009A7E7601845
:100790009EE70B4887210B4A0B4B10F0E5FB14F04A
:1007A000A9FA00BF10D2FF1F7894FF1FC096FF1F49
:1007B0008094FF1FDCD1FF1F4097FF1F00040080C3
:1007C000004F0100084F0100784F01002DE9F04172
:1007D00012F0CCFF0746002866D1EFF31083DA074A
:1007E0003FD5354C354A364D2068AD1A4319996CC2
:1007F000DFF8E4E00E784FF0000C022EC1F818C0CC
:10080000DEF804E031D02F492F4EC2EB01081A6800
:10081000F36854F822001B6940449847264E04466A
:10082000294BD0B13268DB685259DB6856F8220098
:1008300021464044984733681D442369AA6C01331C
:10084000A242236102D0204607F03CFB0FB9BDE86D
:10085000F081BDE8F04110F09DBC33681D44EC6CA4
:10086000EBE710F099FC0127BBE74E68B645CADC00
:10087000DE6CB142C7D0CB6D4059124E9B0754F885
:100880002000C2EB060807D5D1F8FC30002B11DBA5
:100890009E450FDD54F823000B4E4044F3689B68DF
:1008A000984723682B44B2E70848AB21084A094B14
:1008B00010F05AFB14F01EFA10D2FF1F7894FF1F9D
:1008C000C096FF1F8094FF1F4097FF1F004F01003D
:1008D000084F0100D04F0100DCD1FF1F70B5044666
:1008E000EFF31083DB072BD50026226862B3636821
:1008F00053B3A36904F114059D422BD118484368F2
:1009000083420DD053F8141C8A4204D210E053F8ED
:10091000141C91420CD85B68521A83422260F6D1B3
:100920000F4B1A681D6055606261A36126B970BDE6
:100930008A1A43F8142CF4E7BDE8704010F02ABC82
:1009400010F02AFC0126D0E70648C621064A074BCC
:1009500010F00AFB0348C721034A054B10F004FBC3
:100960004097FF1F004F0100084F0100E84F0100B2
:100970001450010000B583B0EFF31083DB0704D5FA
:1009800003B05DF804EBFFF73BBD019010F004FCF1
:100990000198FFF735FD03B05DF804EB10F0FABBEA
:1009A0002DE9F041EFF31083DA0765D500263B4FC0
:1009B0007D68BD4220D055F8143CA5F11404002BED
:1009C00065D0013B45F8143CB3B9A3686D68002BB2
:1009D0002FD03EBB23690BB1E0689847EFF310833B
:1009E000DB0722D500262046FFF70AFD20460CF043
:1009F00067F82368002BE8D029482A4A2A4C056862
:100A0000A41A2B19996CDB6C99422DD02B59274CC9
:100A100050F82300FB68A21A5B69104498473EBB5C
:100A2000BDE8F08110F0B6FBD4E710F0B5FB01266D
:100A3000D9E7D4F80480D8F88430002B0BD01FDA23
:100A40004046FFF797FD2046FFF7DAFCBD42D3D0C2
:100A5000A5F11404CDE7164840F21911154AD8F84B
:100A6000043010F0A9FAEBE701238B61002ED7D0F8
:100A7000BDE8F04110F08EBB10F08EFB012696E72A
:100A80000B484FF48B710C4A0C4B10F06DFA084870
:100A90004FF48171084A0A4B10F066FA4097FF1F25
:100AA00010D2FF1F7894FF1FC096FF1F8094FF1F76
:100AB000004F010070500100084F01004C50010030
:100AC0003850010070B5084B084E00F110052C4657
:100AD000336000E03368A4F110005B6898476468F5
:100AE000A542F7D170BD00BF1894FF1F5097FF1F9C
:100AF00070B500F11005074E2C4602E06468A5426F
:100B000006D03368A4F110001B6998470028F5D07F
:100B100070BD00BF5097FF1F08B5034BD1F89C0074
:100B20001B685B69984708BD5097FF1FD1F8A42048
:100B300001F1A000824208B506D0064AD1F89C0017
:100B40001368DB68984708BD03482421034A044B17
:100B500010F00AFA5097FF1F90500100084F010053
:100B6000A050010008B5D1F8A43001F1A0029342D1
:100B700010D1D1F89C3043B1D1F8A8202AB95A69D4
:100B8000103A824214BF10461846054B1B689B68FA
:100B9000984708BD03481721034A044B10F0E4F9B5
:100BA0005097FF1F90500100084F0100C0500100F6
:100BB0000023406000608360704700BF4368834249
:100BC00014BFA3F1A0000020704700BFD1F8A830E7
:100BD000002BC4BF03F1FF33C1F8A8300BB90123C8
:100BE0008B617047D1F8A42038B501F1A00393427E
:100BF0000FD0D1F89C4084420BD1A568D1F8A00059
:100C0000013D42601060C1F8A430C1F8A030A56079
:100C100038BD03481A21034A034B10F0A5F900BF61
:100C2000F0500100084F0100FC500100D1F8A42051
:100C300001F1A003934210B515D10268D1F8A84084
:100C400003605360C1F8A020C1F8A400C3683CB998
:100C5000C1F8A8308368C1F89C000133836010BDDF
:100C60009C42F5DCF6E703480F21034A034B10F0E2
:100C70007BF900BFF0500100084F0100C050010097
:100C8000244B254A1B68F0B582FB0342234DDC1739
:100C9000C4EB6212224E6427224C07FB12332D68EC
:100CA000341B2C44A46C42F2107505FB03F3246A38
:100CB00085B0064620468DE80C000D460AF002FD80
:100CC000204631466A46082311F03AFAD8B1204648
:100CD0000AF010FDA5B10021082202A80CF0DAFFED
:100CE00020460AF0EFFC2046294602AA082311F00C
:100CF00027FA40B120460AF0FDFC002005B0F0BD07
:100D0000284605B0F0BD20460AF0F4FC4FF0FF3055
:100D1000F4E700BF10D1FF1F1F85EB5110D2FF1F5A
:100D2000C096FF1F7894FF1F184B194A1B6870B5B7
:100D300082FB0312174DD917C1EB6212164C6426C1
:100D4000164906FB12332D68611A2944144C896C2C
:100D500004FB03F30C6A82B0054620468DE80C00C4
:100D60000AF0B0FC204629466A46082311F0E8F94B
:100D700028B120460AF0BEFC002002B070BD20461B
:100D80000AF0B8FC4FF0FF30F7E700BF10D1FF1FAB
:100D90001F85EB5110D2FF1FC096FF1F7894FF1FD5
:100DA0008096980070B50C781646054624B901F077
:100DB0001BFA3560204670BD6FF0010070BD00BFAA
:100DC00008B5D0B1B0F8402041F234239A4214D192
:100DD00002687AB14368B1FBF3F003FB101048B925
:100DE000002907DB02FB03F399422CBF6FF01500CB
:100DF000002008BD6FF0150008BD03486221034ABA
:100E0000034B10F0B1F800BF40510100084F010042
:100E10004851010008B578B1B0F8402041F23423C0
:100E20009A4209D10368002083420CBF4FF400535B
:100E30004FF4C0430B6008BD02485621024A034BE1
:100E400010F092F840510100084F01004851010094
:100E500038B540B1B0F8405041F23424A54202D137
:100E6000C36A984738BD03483821034A034B10F042
:100E70007BF800BF40510100084F010048510100BC
:100E800010B548B1B0F8404041F23422944203D149
:100E9000836A0122984710BD02482F21024A034B62
:100EA00010F062F840510100084F01004851010064
:100EB00010B548B1B0F8404041F23422944203D119
:100EC000836A0022984710BD02482621024A034B3C
:100ED00010F04AF840510100084F0100485101004C
:100EE00008B540B1B0F8401041F23422914202D12D
:100EF000436A984708BD03481D21034A034B10F07D
:100F000033F800BF40510100084F01004851010073
:100F100011F4D86F10B509D158B1B0F8404041F282
:100F20003422944205D1036A984710BD6FF0150032
:100F300010BD03481321034A034B10F015F800BFFE
:100F400040510100084F01004851010038B50D46DD
:100F500004460021284610220CF09CFEE4B1236DCB
:100F6000D3B11B6CC3B12046114901F06FF9236D59
:100F700020461B6C2946984768B9B4F8402041F2D6
:100F800034239A420ED123686168012203FB01F1E8
:100F9000AB60E9606A6038BD06484521064A074BE8
:100FA0000FF0E2FF03484821034A054B0FF0DCFF36
:100FB000CC51010040510100084F01007C5101005B
:100FC0004851010008B500F0A1F900F0BBFA00F0AB
:100FD0002BFB00F0CFF8BDE8084000F043B900BF9C
:100FE00010B541F2342001F0D7F8044618B1034996
:100FF000002201F00DF9204610BD00BFE4420100BF
:1010000000207047002070476FF02200704700BF3B
:101010002DE9F04F4B68CC68002B1E4689B0B8BF55
:1010200003F6FF76C3F30B03059204913613220BEC
:10103000002B68D1C4F30B03002B64D10368B118F3
:10104000994260D81AB9104609B0BDE8F08FDFF8B0
:1010500008A15046D3460EF02BF821E0270B4FEAAB
:10106000C70825464FEAC60949460220DAF81C207F
:10107000434610F045F8002856D107ABDBF81C10AA
:10108000049800932A46012305F056FE079BAB42C5
:101090003ED1C5F30B03002B3AD1641B3E442BD049
:1010A000059941B9B4F5804FD8D34FF020080427F3
:1010B0004FF48045D6E707AA0092DAF81C1004988E
:1010C0004FF48042002305F037FE079F37B3A74255
:1010D00024D8C7F30B030BBB3F0BFD004FEAC60937
:1010E0002B4649460220DBF81C2010F01DF838BBC7
:1010F000079D3E44641BD3D117480DF0D5FF204611
:1011000009B0BDE8F08F6FF0150009B0BDE8F08FB1
:1011100012486821124A134B0FF026FF0F485E2138
:101120000F4A114B0FF020FF0390CDF8009001976C
:10113000CDF808803346094831210C4A0FF014FFDE
:101140000390CDF8009001970295334603483E2165
:10115000074A0FF009FF00BF5497FF1FD451010049
:10116000084F0100B4520100E05101006C5201002F
:1011700020520100F8B5FFF733FF0446002836D0AF
:10118000B0F8402041F234239A422AD10021302283
:101190000CF080FD02200FF093FF002837D00220D2
:1011A0000FF09EFF1C4D1D4A1D491E4F1E4E4FF451
:1011B0008053C0082060A162E2622846636001217A
:1011C000276266620DF064FF4FF480400BF034FC40
:1011D000E861B8B121461548012201F0B5FB58B9C4
:1011E000F8BD13489021134A134B0FF0BDFE104871
:1011F0008E21124A0FF0B8FE034694210C48104A83
:101200000FF0B2FE0A4886210E4A0FF0ADFE0848E4
:101210007A210D4A0FF0A8FE5497FF1F0910000015
:101220001110000001100000051000003C530100E7
:10123000D4510100084F010048510100E45201005F
:101240004453010020530100005301000020704767
:10125000002070476FF01500704700BF6FF0150059
:10126000704700BF70B5FFF7BBFE044608B3B0F887
:10127000402041F234239A4215D1002130220CF053
:1012800009FD114E11481249124D00230122A0629E
:10129000E162266265622360626021460E4801F0C9
:1012A00053FB58B970BD0D4851210D4A0D4B0FF03D
:1012B0005BFE0A484F210C4A0FF056FE03465521AB
:1012C00006480A4A0FF050FE4D1200005512000069
:1012D0005D120000511200008853010060530100AC
:1012E000084F0100485101006C5301009053010068
:1012F00000207047002070470AB10023CB60002017
:10130000704700BF6FF01500704700BF70B5FFF762
:1013100067FE044608B3B0F8402041F234239A42F5
:1013200015D1002130220CF0B5FC114E11481249A4
:10133000124D00220123A062E1622662656284E808
:101340000C0021460E4801F0FFFA58B970BD0D4857
:1013500040210D4A0D4B0FF007FE0A483E210C4A72
:101360000FF002FE0346442106480A4A0FF0FCFD36
:10137000F1120000F912000005130000F512000040
:10138000D0530100AC530100084F01004851010047
:10139000B8530100D8530100002914BF6FF01500A5
:1013A00000207047002070476FF01500704700BFA5
:1013B0002DE9F04F884687B0002A76D1D1F800A0F9
:1013C000D1F80C90EFF31083DA0763D50025384C81
:1013D000384E00274F4534D0236862689A4212DDA8
:1013E0003AE0FFF7F3F9EFF31083DB071AD568460D
:1013F00000250EF09FF9E8B9019BB34221D1236883
:101400006268934228DB2C4869462A4A0EF0E8F9C4
:10141000002DE6D00FF0BEFEFFF7D8F9EFF31083F2
:10142000DB07E4D40FF0B8FE684601250EF082F920
:101430000028E1D0204869460EF012F9019BB34222
:10144000DDD0FDB917B3D8F80C303846DB1BC8F82F
:101450000C3007B0BDE8F08F184A1A40002A1DDB97
:10146000224492F808B058460FF0D4FD2368626811
:10147000013393420AF807B0236007F10107A9DBA3
:10148000002DDFD00FF086FE002FDCD1384607B0EC
:10149000BDE8F08F0FF080FE012598E7013A6FEA72
:1014A00002526FEA12520132DAE76FF01500D0E70C
:1014B0007497FF1F040000807CA7FF1FFF0F0080B0
:1014C00030B583B000B3EFF31083DB0724D50024DD
:1014D000184A194B516815460B40002B22DB126845
:1014E0002B448A1AB2F5805F1872124BB8BF0131D3
:1014F0001248B8BF59600EF017F938B124B103B0E3
:10150000BDE830400FF046BE03B030BD0B480C497B
:1015100001220EF041F9F1E7019001240FF03CFEA9
:101520000198D5E7013B6FEA03536FEA1353013388
:10153000D5E700BF7497FF1FFF0F00807CA7FF1F38
:1015400004000080F8B5FFF74BFD044640B3B0F847
:10155000402041F234239A421CD1002130220CF069
:1015600099FB154F15491648164E0025164B0122BA
:10157000A062E162626015482762666225605D6074
:101580001D600EF04BF82A462146114801F0DCF9A7
:1015900058B9F8BD0F4880210F4A104B0FF0E4FCFA
:1015A0000C487E210E4A0FF0DFFC034684210948D7
:1015B0000C4A0FF0D9FC00BF99130000A9130000DA
:1015C000B1130000A51300007497FF1F7CA7FF1F35
:1015D00018540100F0530100084F01004851010068
:1015E000FC53010020540100012914BF6FF01500C5
:1015F00000207047002070476FF01500704700BF53
:1016000038B50C466AB1CB680D6843B115F8010BCB
:101610000FF000FDE368013BE360002BF6D10020F2
:1016200038BD6FF0150038BD70B5FFF7D9FC044622
:1016300008B3B0F8402041F234239A4215D100217A
:1016400030220CF027FB114E11481249124D002296
:101650000123A062E1622662656284E80C002146F3
:101660000E4801F071F958B970BD0D483A210D4A84
:101670000D4B0FF079FC0A4838210C4A0FF074FC2E
:1016800003463E2106480A4A0FF06EFCE9150000A9
:1016900001160000F9150000F5150000685401005E
:1016A0003C540100084F0100485101004C54010016
:1016B00070540100002070476FF01500704700BFA4
:1016C0000020704710B5044650B1B0F89C2045F298
:1016D00078639A4204D1006800F086FD206810BD4E
:1016E00002481C21024A034B0FF03EFC8C540100BF
:1016F000084F01009454010004300DF0D9BC00BF24
:1017000004300DF0D1BC00BF38B545F2786000F070
:1017100073FE044648B3B0F89C2045F278639A42C1
:101720001DD100F0A1FB206050B3201D01210DF060
:10173000AFFC164D16481749174A04F12003C4F8A8
:10174000A400C4F8A810C4F8A050C4F8AC20636288
:1017500023622146114801F0F1F858B938BD10480C
:101760002E21104A104B0FF0FFFB0D483F210F4A6E
:101770000FF0FAFB0346452109480D4A0FF0F4FB30
:10178000074830210B4A0FF0EFFB00BFB5160000F1
:10179000C5160000B9160000C1160000045501006E
:1017A0008C540100084F010094540100C054010002
:1017B0000C550100E05401004FF400530B60002071
:1017C000704700BF38B50446002833D0B0F8402039
:1017D00041F236239A422DD14368EBB1C56C002DFE
:1017E0002ED0B5F89C2045F278639A4228D128463D
:1017F000FFF782FFA368002B28DD013BA3609BB9A4
:10180000636C8BB922696369284653601A60FFF7DD
:1018100077FF60680BF054F9E06800F0BBFB2046EE
:1018200000F0C4FC002038BD2846FFF769FF6FF0C8
:101830000F0038BD08486121084A094B0FF094FB9E
:1018400005486321054A074B0FF08EFB02486521CE
:10185000024A054B0FF088FB24550100084F010098
:1018600034550100945401006C55010011F4C06F0F
:1018700008B50ED1A8B1B0F8402041F236239A4203
:101880000FD111F0030107D0012902D10378012BF8
:1018900005D06FF0150008BD0378002BF9D10020AA
:1018A00008BD03481321034A034B0FF05DFB00BF43
:1018B00024550100084F010034550100F8B50446D5
:1018C0000D4618B3B0F8402041F236239A421DD19C
:1018D0004068A8B10CF0F8F80646471CEB68BB421C
:1018E00011D3616819B1286832460CF0D7F92B681A
:1018F0000024284639469C5505F004FA2046F8BDD8
:1019000006460127EAE76FF00B00F8BD02485221B6
:10191000024A034B0FF028FB24550100084F010039
:101920003455010070B50D460446002128461022AA
:101930000CF0B0F90CB3236DFBB11B6CEBB120467E
:10194000144900F083FC236D20461B6C2946984700
:10195000064680B9B4F8402041F236239A4212D1AB
:1019600021780123CA1A5142A8605141E0686B6096
:1019700000F062FBE860304670BD07484521074A29
:10198000074B0FF0F1FA04484821044A054B0FF0C9
:10199000EBFA00BFCC51010024550100084F0100B3
:1019A0007C5101003455010010B50C46C8B1B0F8A7
:1019B000402041F236239A4213D10378012B0DD1F6
:1019C0000968C068E26800F091FB014608B9002090
:1019D00010BD204605F096F9002010BD6FF01500EF
:1019E00010BD03483521034A034B0FF0BDFA00BF79
:1019F00024550100084F01003455010038B50C464C
:101A0000B8B1B0F8402041F236239A4211D105789E
:101A100065B90968C068E26800F01CFB014600B9BE
:101A200038BD204605F06EF9284638BD6FF0150028
:101A300038BD03482721034A034B0FF095FA00BF36
:101A400024550100084F01003455010008B550B17C
:101A5000B0F8402041F236239A4204D1C06800F029
:101A6000CDFA002008BD03482021034A034B0FF0A4
:101A70007BFA00BF24550100084F010034550100D6
:101A80002DE9F041074682B01646984600293ED01F
:101A900008460CF049F9054658B341F2362000F0EB
:101AA0007BFB0446F0B13A4620461E4900F0B0FBED
:101AB000B4F8402041F236239A421CD10EB3D8F13B
:101AC000010804F1100238BF4FF00008012384F828
:101AD00000806560E660A36062612261204602B01A
:101AE000BDE8F08128460AF0EBFF204602B0BDE8D1
:101AF000F0810020F3E70C48A5210C4A0C4B0FF0B5
:101B000033FA09489721094A0A4B0FF02DFA41F29E
:101B10003620019100F040FB019904460028E8D0EE
:101B20000D46C0E74043010024550100084F010065
:101B300034550100845501002DE9F04383B0074678
:101B40000E46214801A900F091FE044618B1204636
:101B500003B0BDE8F08300F0EBF90546002830D073
:101B6000019B0246D3F84C90214648460123FFF7DB
:101B700087FF8046F8B1284600F0F8F9484621462C
:101B80002A462346FFF77CFF81464046B9F1000F05
:101B90000FD000F047FB484600F044FBC7F8008038
:101BA000C6F80090019800F08DFB204603B0BDE818
:101BB000F08300F087FB284600F0ECF96FF00B048F
:101BC000F0E76FF00B04EDE7045501002DE9D04379
:101BD000994600F120060023C9F8003090460F46D0
:101BE000344613606468A6421ED054F80C0C394683
:101BF0000BF0A8FF0028F5D114F8103CA4F1100058
:101C0000A3B1012B18D1D9F8003003BBC9F80000EB
:101C100000F0EAFA0128E5D154F8083C013344F811
:101C2000083C6468A642E0D1BDE8D083D8F8003013
:101C30003BB9C8F80000EBE708481F21084A0FF03D
:101C400093F906481621074A074B0FF08DF9034810
:101C50001A21044A054B0FF087F900BF9455010083
:101C6000D0550100084F0100A0550100B8550100F2
:101C700070B50B7882B0722B0D46164601D0772BCB
:101C800032D16B785F2B2FD1C46C3CB3B4F89C205D
:101C900045F278639A4221D12046FFF72DFD01AB32
:101CA0002046A91C6A46FFF791FF2046FFF728FD52
:101CB0002B78722B0DD0009B019A18468DE80C00F2
:101CC00008B100F0FFFA009B2BB13360002002B096
:101CD00070BD0198F4E76FF00100F8E7054869214D
:101CE000054A064B0FF040F902486721024A044BAF
:101CF0000FF03AF994550100084F01009454010087
:101D0000F05501002DE9F0430D7883B0722D174690
:101D1000994601D0772D69D14B785F2B66D1B5F10B
:101D20007203C46C5D425D4101F10208002C57D082
:101D3000B4F89C2045F278639A4251D12046FFF7CF
:101D4000DBFC204641466A4601ABFFF73FFF9DB9E9
:101D5000009B01988DE8090088B1002F33D1C9F8A4
:101D600000002046FFF7CCFC019808B100F0AAFA69
:101D7000384603B0BDE8F08300980028EDD1019B00
:101D800033B3B3F8401041F2362291423AD1DE68C3
:101D9000304600F0EBF841462B4620463246FFF72E
:101DA0006FFE48B3B0F8402041F236239A4204F166
:101DB00020012DD1636A00F110021A6000276262CF
:101DC00043610161CBE700F07DFA6FF01007C8E7CF
:101DD00000F0AEF806460028DDD16FF00B07C0E733
:101DE0000E4833210E4A0F4B0FF0BEF80B482C2142
:101DF0000B4A0D4B0FF0B8F8304600F0CBF86FF0FF
:101E00000B07AEE705484D21054A084B0FF0ACF82B
:101E100002485821024A054B0FF0A6F894550100DC
:101E2000084F010094540100285601003455010068
:101E300010B50C78722C01D0772C08D14C785F2C1F
:101E400005D11060196000F0CFF9002010BD0348E3
:101E50008321034A034B0FF087F800BF945501001C
:101E6000084F0100F055010038B5054641F2352014
:101E700000F092F9044618B12A46024900F0C8F968
:101E8000204638BD9C43010070B5054686B0EFF38F
:101E90001083D90721D56946154A0DF0A1FCFEF73C
:101EA00095FCEFF31083DA0713D5002668460DF092
:101EB00041FC48B90EB10FF06DF9019B0C481B1A9B
:101EC0005842584106B070BD284669460DF0C8FB1F
:101ED000F0E70FF061F90126E8E70FF05DF96946D8
:101EE0002846034A0DF07CFC0FF054F9D7E700BFF9
:101EF0000002008010B504460DF016FC50B9EFF357
:101F00001083DB0707D5204608490122BDE81040B1
:101F10000DF042BC10BD0FF03FF9204603490122ED
:101F20000DF03AFCBDE810400FF034B9000200801B
:101F300010B54FF480500AF07FFD044698B100239D
:101F400002464360012142F8483B8260C360016160
:101F500014300DF09DF804F130000DF05FFB04F13A
:101F60003C000DF05BFB204610BD00BF08B50369C7
:101F7000002B02DD0133036108BD03486321034ADE
:101F8000034B0EF0F1FF00BF60560100084F010047
:101F90007056010010B50446A0B10369002B11DD95
:101FA000013B036103B110BD30300DF0BDFB78B1D2
:101FB00004F13C000DF0B8FB80B12046BDE81040B4
:101FC0000AF07EBD08486921084A094B0EF0CCFF93
:101FD00005486B21054A074B0EF0C6FF02486C21ED
:101FE000024A054B0EF0C0FF60560100084F010089
:101FF00088560100B0560100DC56010010B50446B9
:1020000068B10369002B0ADD0123C3603030FFF79C
:1020100071FF04F13C00BDE81040FFF76BBF0348BF
:102020007321034A034B0EF09FFF00BF605601006F
:10203000084F01008856010042680368D31A39B17D
:10204000C2681AB9C3F57B6008307047002070473A
:10205000184670472DE9F84304468946904600F13A
:10206000140500F1300707E0E36893BB0DF01CF89E
:102070003846FFF709FF78B328460DF019F894E8C1
:102080004800B3422846EFD0B8F1000F1BD01648E5
:10209000002640F6B87102E06268934220D0A0FBAF
:1020A0000372D20A01FB1233A268D35C09F806302E
:1020B00023680136013346452360EDD104F13C002D
:1020C000FFF718FFB04628460CF0EEFF4046BDE88B
:1020D000F8834FF00008F6E780464046BDE8F883F5
:1020E000B046002EEFD0E9E7614E4A822DE9F04F6D
:1020F0008B4683B000F11401DFF898A005469046A6
:102100000191002740F6B77901980CF0D1FFEB68F8
:10211000002B3DD147453BD295E80C009A1A4A4521
:1021200021D83C4640F6B87003E02E689E1B4E4511
:102130001AD8AAFB0312D20A00FB12331BF8046060
:10214000AA680134D6546B68A04503F10103C7EBBC
:1021500004026B60E9D8B2B901980CF0A5FF2046E3
:1021600003B0BDE8F08F3C4605F13000FFF7C2FE3A
:1021700001980CF099FF05F13C00FFF785FE00285F
:10218000EDD02746C0E705F13000FFF7B3FEE3E7E7
:102190003C46E1E7614E4A8210B5044654200AF0FD
:1021A0004BFC08B1A0F8404010BD00BF426C08B520
:1021B0002AB9836C4BB9BDE808400AF081BC0648D7
:1021C0002D21064A064B0EF0CFFE03482E21034A6E
:1021D000044B0EF0C9FE00BFCC610100084F0100A6
:1021E000085701002457010010B50446EFF310838F
:1021F000DB0704D5436C01334364606C10BD0EF003
:10220000CBFF636C013363640EF0C4FF606C10BDE0
:1022100010B40024446401658464C2645DF8044B16
:10222000FFF7E2BF10B50446EFF31083DB0704D5D8
:10223000836C01338364A06C10BD0EF0ADFFA36C02
:102240000133A3640EF0A6FFA06C10BD08B590B1D9
:10225000036D83B11A68144B9A421ED1426C836C91
:102260009A4214DB002B12DBB2F5803F09DAB3F59A
:10227000803F06DA08BD0D486C210D4A0D4B0EF06B
:1022800073FE0A4871210A4A0B4B0EF06DFE074897
:102290007021074A094B0EF067FE04486D21044A7D
:1022A000074B0EF061FE00BF76A44B8CCC610100A1
:1022B000084F010040570100BC5701009057010032
:1022C0006857010038B5436C0446002B2CDDEFF352
:1022D0001083DB071AD5436C013B4364656C9DB9E1
:1022E000236DDBB19B6BCBB120461249FFF7AEFFEC
:1022F000236D20469B6B984730B110F1100F03D02F
:1023000001460D480EF034FD284638BD0EF044FF5E
:10231000636C013B63640EF03DFFDFE70748452136
:10232000074A084B0EF020FE04484221044A064B9F
:102330000EF01AFE645801006C580100CC610100D7
:10234000084F010014580100F857010038B5836C9C
:102350000446002B2BDDEFF31083DB0719D5836CCC
:10236000013B8364A56C65B9236DD3B19B68C3B190
:1023700020461249FFF76AFF236D20469B68984765
:1023800008B9284638BD01460D480EF0F1FC284634
:1023900038BD0EF001FFA36C013BA3640EF0FAFE02
:1023A000E0E708485F21084A084B0EF0DDFD0548CC
:1023B0005C21054A064B0EF0D7FD00BFF85801001E
:1023C00000590100CC610100084F0100A85801002C
:1023D0008C580100002070476FF01500704700BF57
:1023E0006FF02200704700BF6FF01400704700BF0D
:1023F0006FF01300704700BF10B50446B0200AF01C
:102400001BFB08B1A0F89C4010BD00BF10B5094CE3
:10241000012120460CF03CFE00F0DAF904F11C0327
:1024200004F124002362E3610121BDE810400CF0B7
:102430002FBE00BF88A7FF1F70B5002382B0019395
:10244000044688B13A210BF0B3FBF0B14378E3B90D
:10245000204600F0A3FE08B102B070BD01A800F054
:102460000DFE0028F8D1019C094D28460CF020FEF5
:102470002E6C28462C640CF017FE3046002EEBD054
:10248000FFF720FF002002B070BD6FF01500E3E7FA
:1024900088A7FF1F70B50C4C0646236C83B12046FD
:1024A0000CF006FE256C45B12846FFF79DFE204640
:1024B0000CF0FAFD3560002070BD20460CF0F4FDF4
:1024C0006FF0010070BD00BF88A7FF1F044B012102
:1024D00003F11C0203F124001A62DA610CF0D8BD8A
:1024E00088A7FF1F2DE9F84389460446002850D0ED
:1024F0000BF0EAFA1F2844D820460BF015FC0546DD
:10250000002842D010200AF097FA804688B3244F62
:1025100007F108003C460CF0CBFD05E054F8080C30
:1025200029460BF00FFBA8B164681E4EBC42F5D1E2
:10253000326A08F1080388E8200206F124001360DB
:10254000C8F80C20C8F8084033620CF0ADFD00203C
:10255000BDE8F88306F124000CF0A6FD40460AF021
:10256000AFFA6FF0100428460AF0AAFA2046BDE838
:10257000F88328466FF00B040AF0A2FA2046BDE863
:10258000F8836FF01A00BDE8F8836FF00B00BDE828
:10259000F88305489021054A054B0EF0E5FC00BF85
:1025A000A4A7FF1F88A7FF1F20590100084F0100A3
:1025B00028590100F8B5144E074606F108003446C4
:1025C0000CF076FD05E054F8080C0BF0BBFA05465C
:1025D00050B164683946B442F5D16FF010050B482C
:1025E0000CF062FD2846F8BD94E80C0054F8080D84
:1025F00053601A600AF064FA20460AF061FA034850
:102600000CF052FD2846F8BDA4A7FF1FACA7FF1F82
:10261000F8B5154D074605F108000E462C460CF09E
:1026200047FD05E054F8080C31460BF08BFA48B131
:102630006468AC42F6D16FF010040C480CF034FD25
:102640002046F8BD54F8043C3BB138469847044650
:1026500006480CF029FD2046F8BD0548D221054A60
:10266000054B0EF081FC00BFA4A7FF1FACA7FF1F06
:1026700020590100084F01003859010000F0BCB991
:102680002DE9F0470446884692469946002862D0D4
:10269000002948D0B1F8402041F234239A4244D175
:1026A00020460BF011FA1F284DD820460BF03CFBBA
:1026B000054600284BD018200AF0BEF9074600282E
:1026C00039D0284E06F1080034460CF0F1FC05E044
:1026D00054F8100C29460BF035FAB0B16468B442D6
:1026E000F6D1626807F1100387E82001C7F80C9063
:1026F000C7F808A004F1080013607A613C616360C8
:102700000CF0D2FC0020BDE8F08717480CF0CCFCA0
:1027100038460AF0D5F96FF0100428460AF0D0F9CF
:102720002046BDE8F087002BBAD01048D621104AC9
:10273000104B0EF019FC28466FF00B040AF0C0F99C
:102740002046BDE8F0876FF01A00BDE8F0876FF013
:102750000B00BDE8F0870548D421054A064B0EF072
:1027600003FC00BFCCA7FF1FD4A7FF1F48590100DF
:10277000084F01006459010054590100F8B506469C
:102780000F46A8B10E4D2C466468AC420DD054F8EB
:10279000043C002BF8D054F8100C31460BF0D2F961
:1027A0000028F1D1103C3C60F8BD6FF01200F8BD7C
:1027B000044840F21511044A044B0EF0D5FB00BF4B
:1027C000CCA7FF1F48590100084F010054590100D0
:1027D000034B012103F108005B601B600CF058BC47
:1027E000CCA7FF1F38B50E4D6B68AB4217D005F173
:1027F00008000CF05DFC2C466468AC420AD054F82A
:10280000083C1846002BF7D0D3F8AC3098476468E2
:10281000AC42F4D10348BDE838400CF045BC38BDAB
:10282000CCA7FF1FD4A7FF1F38B50E4D6B68AB4276
:1028300015D005F108000CF03BFC2C466468AC4256
:102840000AD054F8083C1846002BF7D0D3F8A03033
:1028500098476468AC42F4D103480CF025FC002092
:1028600038BD00BFCCA7FF1FD4A7FF1FF8B5064691
:102870000F4698B31C4D6B68AB422CD005F1080095
:102880000CF016FC2C4605E0304654F8101C0BF0FA
:1028900059F948B16468AC42F6D16FF0120413489C
:1028A0000CF002FC2046F8BD54F8080C30B1D0F80A
:1028B000A430984728B138600024F0E754F8043C6D
:1028C00013B16FF00F04EAE754F80C0CFFF78CFC1F
:1028D00054F80C0CEEE76FF01204E3E704487321A0
:1028E000044A054B0EF040FBCCA7FF1FD4A7FF1FE7
:1028F00048590100084F01005459010008B570B152
:102900000A490B4603E053F8082C824204D05B6866
:102910008B42F8D1002008BD53F8100C08BD0448C4
:10292000AD21044A044B0EF01FFB00BFCCA7FF1FD4
:1029300048590100084F0100C05901000A46002112
:102940000B46FFF79DBE00BF13460022FFF798BE5F
:1029500030B5044683B021480D460CF0A9FB204653
:1029600001A9FFF70BFF0446D0B9019B9A68EAB9A9
:102970001A68F2B1DA68E2B1586808B3B0F84010EA
:1029800041F2342291421BD103F10801A8470446C9
:1029900030B9019B9A68D2B1196811480EF0E8F974
:1029A0000E480CF081FB204603B030BD6FF00F04E1
:1029B000F6E70C4840F233110B4A0C4B0EF0D4FAF8
:1029C000084840F23511084A094B0EF0CDFA054887
:1029D00040F23711044A074B0EF0C6FAD4A7FF1F86
:1029E0000C5A010048590100084F0100CC59010060
:1029F00048510100F859010010B5044682B01A4848
:102A00000CF056FB204601A9FFF7B8FE044658B962
:102A1000019B9868E8B11A68F2B1DB68E3B1D0F8BD
:102A2000A0309847044628B10F480CF03DFB2046E3
:102A300002B010BD019B9868D0F8A83098470446B2
:102A40000028F1D1019B09489C6019680EF090F9AB
:102A5000EAE76FF01504E7E705484FF4A871054A67
:102A6000054B0EF081FA00BFD4A7FF1F1C5A0100CE
:102A700048590100084F0100CC59010038B51C4DE0
:102A80006B68AB422BD005F108000CF011FB2C4613
:102A90006468AC4220D054F8043C002BF8D054F8C1
:102AA000083C1846002BF3D0D3F8A03098470346D3
:102AB000024610484BB954F8080CD0F8A830984793
:102AC00003461A460C4863B10C4854F8101C0EF02B
:102AD0004FF96468AC42DED109480CF0E5FA0020F9
:102AE00038BD44F8083C54F8101C0EF041F9CFE70B
:102AF000CCA7FF1F305A01001C5A0100585A010090
:102B0000D4A7FF1F2DE9F04111F0030384B00C4658
:102B100017465BD0022B5CD801F4007863065DD5C4
:102B200001A903AA00F072FA002854D1019D002DDA
:102B30006ED02B6D002B6BD0DB6C002B68D0284641
:102B40003C49FFF783FB2B6D0198DD6C0399C4F3BF
:102B5000C01202ABA84706460198FFF7B3FB002E50
:102B600042D1029D002D5FD02B6D002B4AD05B68B7
:102B7000002B47D028463049FFF768FB2B6D2146D4
:102B80005B680298984704460298002C34D1FFF7FE
:102B900049FBB8F1000F13D0029C002C3ED0236DEE
:102BA000002B3BD09B6C002B38D020462349FFF7ED
:102BB0004DFB236D31469B6C029898470446B8B98B
:102BC000029B00203B6004B0BDE8F08111F4007866
:102BD000A4D06FF0150004B0BDE8F08102A900F0A8
:102BE000DDF90646002EBCD0304604B0BDE8F081C9
:102BF0000298FFF7ABFB0298FFF764FB204604B096
:102C0000BDE8F0810E4835210E4A0F4B0EF0ACF9AD
:102C10000B482A210B4A0D4B0EF0A6F908483C211F
:102C2000084A0B4B0EF0A0F905483321054A094B21
:102C30000EF09AF9E05A0100385B0100945B010044
:102C4000845A0100084F0100E85A0100905A01001F
:102C5000405B01008867010010B50446FFF776FB72
:102C60002046FFF72FFB002010BD00BF10B582B03B
:102C700001A96A4600F0CAF998B9019C9CB1236D7C
:102C80008BB11B6D7BB120460A49FFF7DFFA236D3C
:102C900000991B6D0198984704460198FFF712FBB5
:102CA000204602B010BD04486621044A044B0EF0D1
:102CB0005BF900BFF05B0100845A0100084F01007E
:102CC000A05B010030B585B00C466A4602A900F051
:102CD0009DF908B105B030BD204603A901AA00F056
:102CE00095F9044688B9029CE36C1BB1039AD26C37
:102CF00093420FD020466FF01105FFF7E3FA0398D7
:102D0000FFF7E0FA284605B030BD0298FFF7DAFA7F
:102D10002046DFE7236D7BB15B6A6BB12046094932
:102D2000FFF794FA236D02985C6A0099039A019B5D
:102D3000A04705460298E0E703487C21034A044B7C
:102D40000EF012F9485C0100845A0100084F01009E
:102D5000F85B010010B584B00C4602A900F01EF922
:102D600008B104B010BD204603A901AA00F04EF935
:102D70000446029854B9C36C1BB1039CE26C9342A5
:102D800009D06FF01104FFF79DFA0398FFF79AFA44
:102D9000204604B010BD236D73B11B6A63B1204699
:102DA0000849FFF753FA236D03981B6A0199029AA9
:102DB000984704460298E6E703489421034A044BE7
:102DC0000EF0D2F8505D0100845A0100084F010056
:102DD000505C010030B583B005466A46084601A93B
:102DE00000F014F9A0B9019CA4B1236D93B1DB6A82
:102DF00083B120460A49FFF729FA236D2A46DB6A88
:102E000000990198984704460198FFF75BFA20461D
:102E100003B030BD0348AA21034A044B0EF0A4F8C6
:102E2000F05C0100845A0100084F0100A05C010021
:102E300030B583B00D4601A900F0B0F898B9019CF7
:102E40009CB1236D8BB19B6A7BB120460A49FFF789
:102E5000FDF9236D29469B6A01989847044601981D
:102E6000FFF730FA204603B030BD0448BD21044AC4
:102E7000044B0EF079F800BF4C5D0100845A01004C
:102E8000084F0100F85C010010B582B001A96A4644
:102E900000F0BCF898B9019C9CB1236D8BB1DB6943
:102EA0007BB120460A49FFF7D1F9236D0099DB6910
:102EB0000198984704460198FFF704FA204602B0AB
:102EC00010BD0448CD21044A044B0EF04DF800BF5C
:102ED000A85D0100845A0100084F0100585D0100FF
:102EE0002DE9F043037883B007468846914683B1C5
:102EF0003A2B24D02F2B3FD0441C002503E03A2B43
:102F00000DD02F2B05D0264614F8013B0135002BA0
:102F1000F5D1C8F80070484600F0B0F80CE0002287
:102F20007B1932705C7801332F2CFBD0C8F800304D
:102F300038464946FFF79AFC03B0BDE8F08301A884
:102F400000F09CF80028F7D1019BD86CD0B1D0F8E4
:102F5000A4309847C9F800000198FFF7B3F97B1C2B
:102F600019781A462F2903F10103F9D00020C8F877
:102F7000002003B0BDE8F0831046FFF78BFA00286D
:102F8000EDD0D9E702484521024A034B0DF0ECFF92
:102F9000B05D0100084F0100BC5D010030B585B097
:102FA00004AB43F80C0D0C4603AA1946FFF798FF33
:102FB000B8B9019B1878B0B1039DC5B12B6DB3B101
:102FC0005B6DA3B128460D49FFF740F92B6D2246F2
:102FD0005B6D01990398984704460398FFF772F9CF
:102FE000204605B030BD039B236005B030BD0448CA
:102FF0005D21044A044B0DF0B7FF00BF205E0100C5
:10300000B05D0100084F0100D05D010070B584B0D3
:1030100004AC44F80C0D0E461546214603AAFFF7F2
:103020005FFFC0B9019B1B78BBB1039CC4B1236D8A
:10303000B3B19B6DA3B120460C49FFF707F9236D8F
:1030400032469C6D03982B460199A047044603988D
:10305000FFF738F9204604B070BD6FF01504F6E7AD
:1030600003486E21034A044B0DF07EFF805E010091
:10307000B05D0100084F0100285E01000A4A38B522
:103080000A490B4B1268CB1A13449B6C0546D3F8C4
:10309000C0301C682CB12046FFF7A6F82C60002039
:1030A00038BD6FF0010038BD10D2FF1FC096FF1F62
:1030B0007894FF1F2DE9F041314E324A324D33688A
:1030C000AD1A2B449B6C044682B0D3F8C00003F0C9
:1030D00043FD32682A44936CD3F8C000D0F80080D6
:1030E000444545D0002C2BD0236D002B42D01B6CC7
:1030F000002B3FD020462549FFF7A8F8236D204636
:103100001B6C01A99847074638B9019B03F470432B
:10311000B3F5804F0CD06FF0130733681D44AB6CD0
:10312000D3F8C00003F01CFD384602B0BDE8F081C2
:103130002046FFF759F832682A44936CD3F8C00050
:103140000460B8F1000F0ED04046FFF7BBF83368BB
:1031500000271D44AB6CD3F8C00003F001FD3846D6
:1031600002B0BDE8F081936C4746D3F8C000D9E7C0
:103170000027D7E706483C21064A074B0DF0F4FE2E
:1031800010D2FF1F7894FF1FC096FF1FCC51010083
:10319000905E0100084F01007C51010010B582B023
:1031A00001A9FFF7FBFE044630B90198FFF782FF43
:1031B00004460198FFF786F8204602B010BD00BF14
:1031C00070B584B0054603A8FFF758FF0446A8B9B8
:1031D000039BD86C002837D0FFF790FB06460AF017
:1031E00073FC0094024631462846012303F0A4FDF7
:1031F000044628B10398FFF765F8204604B070BD77
:103200003A2304A9012201F8053D009013462846FF
:1032100003F092FD04460028ECD1039C74B1236DA9
:1032200063B11B6B53B120460A49FFF70FF8236DBA
:1032300029461B6B039898470446DBE7064875212F
:10324000064A074B0DF090FE03486A21034A054BDE
:103250000DF08AFEF05E0100905E0100084F010053
:103260009C5E0100BC5D01002DE9F0410446002890
:103270003DD000F12003984239D20C2009F0DCFB4C
:10328000054658B304F11F067609B700384609F021
:10329000D3FB804628B385E850003A46FF210AF068
:1032A000F9FC7301A342A86018D06709013E203BD6
:1032B000B742C3EB040320D15A1E1E2A23D850F86C
:1032C0002720012404FA03F10133202B82EA0102B2
:1032D000F8D140F827202846BDE8F0812846BDE80F
:1032E000F081284609F0ECFB4046BDE8F081094832
:1032F0001421094A094B0DF037FE06482921064AD8
:10330000074B0DF031FE03482A21034A054B0DF00F
:103310002BFE00BFFC5E0100084F0100205F010092
:10332000485F0100605F010070B5446882685CB16D
:10333000106860B90432034603E0164652F8040BE5
:1033400038B90133A342F8D16FF00B0070BD1646B7
:1033500000230024012202E00134202C0AD002FACA
:1033600004F50542F8D0684004EB431330600020B8
:103370000B6070BD02484121024A034B0DF0F4FD81
:10338000FC5E0100084F01003862010008B50368C7
:103390008B4209D901F01F0301229A408368490931
:1033A00053F82100104008BD11F0B2FC036810B5BD
:1033B0008B420DD901F01F0301249C408368490909
:1033C00053F82120144205D1224343F8212010BD97
:1033D00011F09EFC02485C21024A034B0DF0C4FD33
:1033E000FC5E0100084F0100885F010010B5044633
:1033F000806809F065FB2046BDE8104009F060BB1D
:1034000011B143689B000B608068704708B50B489A
:103410000B49FFF767F820B90A4800F041FA30B9C4
:1034200008BD03460B210848084A0DF09DFD0346E0
:103430000E210548064A0DF097FD00BF985F010078
:10344000A13800003C5301009C5F0100A45F010013
:10345000CC5F0100F8B5074600283AD0B0F89C20B0
:1034600045F279639A4234D102F024FDD7F89440B2
:1034700007F19006A64211D0B4F1300523D0236A9B
:103480000BB39B69FBB128461549FEF7DFFE236AA3
:1034900028469B6998476468A642EDD1384602F0F9
:1034A00015FD786B00B9F8BD00237B63384602F048
:1034B000A5FC10B101237B63F8BD384602F0BCFCCB
:1034C0000028F7D1EFE707483B21074A074B0DF0EB
:1034D0004BFD04481821044A054B0DF045FD00BF83
:1034E00074600100EC5F0100084F010024600100DE
:1034F000F85F010010B584B004460B03684611461E
:103500004FF4805203F0F6FBA36A014600222046E6
:10351000984704B010BD00BF38B5044600B3B0F8FA
:103520009C2045F279639A421AD1D0F8943000F188
:103530009002934210D1456BC5B9006BFFF756FF5F
:10354000A06B09F0BDFAD4F8980009F0B9FA20464A
:1035500009F0B6FA284638BD6FF00F05284638BD89
:1035600005486921054A064B0DF0FEFC02486D2115
:10357000024A044B0DF0F8FCEC5F0100084F01001B
:10358000F85F01007C600100F0B5054683B038B3F8
:10359000B0F89C2045F279639A4221D14268836851
:1035A00000F10C0700923946D21A10480DF0E0FBEA
:1035B000202401E0013C09D0D5F8A02028469047FE
:1035C00006460028F6D1304603B0F0BD00903B46D9
:1035D00007488321074A0DF0EFFC304603B0F0BDE9
:1035E00003487721044A054B0DF0BEFC90600100B2
:1035F000EC5F0100B0600100084F0100F85F0100BE
:1036000000B583B070B1B0F89C2045F279639A425E
:1036100008D101A9012201F05BFC48B9019803B06F
:103620005DF804FB05485B21054A064B0DF09CFC48
:1036300003465C210148044A0DF096FCEC5F010052
:10364000084F0100F85F0100CC6001002DE9F04F48
:10365000446889B0B4F5805F0746039140F09780D5
:1036600045F27960FEF7C8FE0546002800F0E580C7
:10367000B0F89C2045F279639A4240F0E380C7623B
:10368000204609F0D9F90646A863002800F08A8090
:10369000384600213246FFF72DFF804640B9316899
:1036A000724A91420ED072480DF062FB6FF015081D
:1036B000304609F005FA284609F002FA404609B0FA
:1036C000BDE8F08F71683A68914265D886F82B00A2
:1036D000B6462C46BEE80F000FC4BEE80F000FC46C
:1036E0009EE8070084E807004FF4005009F0A4F9B1
:1036F0000446C5F89800002800F0998004EB080300
:103700005B6044F8083008F10808B8F5005FF5D1AF
:10371000736803F5FF437F3323F4FF4323F07F03F4
:1037200018460493FFF7A0FD05902863002800F0D9
:103730008180736807A903F5FF49FFF761FE09F16E
:103740007F094FEAD9398246002800F08180079A24
:10375000B2EB093F7CD14FF0020BB9F1000F07D15A
:1037600023E0B9F101090BF1010B0AF5805A1CD0D5
:10377000384659465246FFF7BDFE80460028F0D035
:103780000598FFF733FE204609F09AF990E76FF0AD
:103790000F0009B0BDE8F08F36480DF0E9FA6FF080
:1037A000150885E76FF00B0885E7049B6F68002B11
:1037B00046D00026344605982146FFF7E7FD00B1C4
:1037C0000136049B01349C42F5D1AB68B34245D12C
:1037D000002405F13C0001216C630BF059FC05F15C
:1037E000580001210BF054FC05F1740001210BF08D
:1037F0004FFC05F19003C5F89430C5F89030BA1B22
:10380000334605F10C0100971B480DF0B1FA1B4B34
:103810001B4EC5F8AC301B491B4A039BC5F8A06082
:10382000C5F8A410C5F8A82020461D6047E76FF032
:103830000B083DE76FF00B08A5E76FF00B003EE7C4
:10384000049EC2E71148CB21114A124B0DF08CFBAC
:103850000E4895210E4A104B0DF086FB0B4840F2A6
:103860000F110B4A0D4B0DF07FFB00BF2ABE8D2FB1
:10387000E860010020610100A86101001935000025
:10388000553400000136000089350000EC5F01006E
:10389000084F0100F85F0100506101007C610100E8
:1038A0000149FFF755B800BF4D3600008B0706D120
:1038B00011F4806F0CBF00206FF0140070476FF0A0
:1038C0001400704700207047D0F8942038B50C469B
:1038D0000346303100F1900511606068C3F8941020
:1038E000626325630A21D3F8985009F08DF905EB3E
:1038F000C000436804F138021A604260E363A063C9
:1039000038BD00BF08B52F210AF052F968B102781E
:103910002F2A08D1431C002103F8011C184613F874
:10392000012B2F2AF8D002B108BD002008BD00BF2E
:1039300008B510B3B0F8402041F237239A421CD1A9
:1039400003681B89022B13D0032B07D0012B0AD04D
:103950000D4840F299410D4A0DF006FB4FF420430B
:103960000B60002008BD4FF400430B60002008BD31
:103970004FF480430B60002008BD034840F28D41A6
:10398000034A044B0DF0F0FAC86101000C6201001B
:10399000084F0100D461010000B50B4683B061B14E
:1039A0004268914209D2006BFFF7F0FCD0F10100B0
:1039B00038BF002003B05DF804FB00934368462144
:1039C0000148024A0DF0D0FAC86101003C620100D2
:1039D0002DE9F843814641F237200E4690461F46B6
:1039E000FEF7DAFB044628B33389012B20D0022BE3
:1039F00019D115494A462046FEF70AFCB4F8402082
:103A000041F237239A4219D10025012104F1140013
:103A100084E84001E560A56021610BF039FB284690
:103A20003C60BDE8F88309482C21094A0DF09CFA56
:103A30000849DFE76FF00B00BDE8F8830348632116
:103A4000054A064B0DF090FAF8430100C8610100E9
:103A50000C62010054440100084F0100D4610100D0
:103A600070B50446006B0D46FFF75EFC88B9A3688D
:103A7000B3B1013B0126A360666329682046FFF7C6
:103A80008BFF38B1204629683246BDE8704002F00D
:103A9000E9B970BD05485121054A064B0DF064FA9D
:103AA00002484F21024A044B0DF05EFAC861010042
:103AB000084F0100906201007062010038B50446B1
:103AC0000D46FFF769FF48B12946206BFFF76EFCF2
:103AD000A36801221344A360626338BD02485721E2
:103AE000024A034B0DF040FAC8610100084F010083
:103AF0001C6301002DE9F043B2F5806F85B00D46DF
:103B00001E4680464DD20C68002397000294039312
:103B100034B9AEB90C9B00201E6005B0BDE8F0833F
:103B20000DF10C09009723464946042202F0F6F8ED
:103B30000028F2D1039ACAB94EB92968029B18E04D
:103B400002A9FFF78DFF0028E7D10DF10C094046CF
:103B50004946FFF785FF044688B12B6802998B42DE
:103B60000BD04046FFF7AAFF2046D6E72968029B04
:103B700016468B4218BF2B60CCE72046CDE7029B50
:103B8000009749464046042202F0FCF8044618B962
:103B90002968029B039EECE740460399FFF78EFFDE
:103BA000DBE70348A821034A034B0DF0DDF900BF12
:103BB000C8610100084F0100B4620100F0B505467C
:103BC00083B048200C46174608F036FF064600280A
:103BD00031D0002148220AF05DF834812846694638
:103BE000FFF73EFF044600BB28463146009A01AB72
:103BF000FFF7EEFE04462846A4B902F05BF90199EE
:103C0000E1B1B1F8402041F237239A4216D128465B
:103C1000FFF75AFE284602F059F9019B20463B6007
:103C200003B0F0BD0099FFF749FF304608F048FFA8
:103C3000204603B0F0BD6FF00B00FAE7034840F2F6
:103C40001E21034A034B0DF08FF900BFC86101002C
:103C5000084F0100D46101002DE9F0470C680D46C2
:103C6000E16884B0914299460746C0F0938014BF42
:103C7000002601260B2A1FD804EB820ADAF810105E
:103C8000039100295AD03846FFF786FE002800F03D
:103C90008F80DDF80C8038464146FFF77DFE002816
:103CA0007FD0002E52D1B9F1000F01D0C9F80080A9
:103CB000002004B0BDE8F087A2F10C03B3F5806FDB
:103CC0001DD2226C04A90DF10C0E41F8082D1A46E4
:103CD000CDF800E03346FFF70DFF0028E9D1226C54
:103CE000029B9A4250D0002A6FD1DDF80C8001224D
:103CF0002364EA60B8F1000FCDD04146C3E7636C9E
:103D00000DF1100A4AF8083DA2F20C4803AB0093EB
:103D100051464FEA98223346FFF7ECFE0028C8D1FF
:103D2000626C029B9A4204D0002A48D1012263644B
:103D3000EA60039B0293E3B99846ACE756B9314673
:103D4000FFF72AFE00282CD0B046ACE7E368013329
:103D5000E360A8E703A9FFF783FE0028A9D1039B2E
:103D600001229846CAF81030EA60B8F1000F92D0EC
:103D7000C3E703AB00935146C8F309023846334604
:103D8000FFF7B8FE002894D1DDF80C80B8F1000FE1
:103D900081D0B2E710484FF4AB71104A104B0DF0D0
:103DA000E3F80D4840F25D110C4A0E4B0DF0DCF8C3
:103DB00009484FF48571094A0B4B0DF0D5F80648B8
:103DC000FD21064A094B0DF0CFF80348EE21034AC6
:103DD000074B0DF0C9F800BFC8610100084F010092
:103DE000CC6201001C63010010630100F862010055
:103DF000E46201002DE9F04F0C688B4621898BB0FD
:103E00000229049480461646994600F0CC80149D01
:103E100000202B68B9F1006F09EB030A286080F0DD
:103E2000B880D14500F3B5802FD01598BAF1006F56
:103E300088BF4FF0006A00282AD1049C2368994566
:103E400080F084805B4D5C4C9A4528BF9A4605956E
:103E5000069421E022464046594609ABFFF7FCFE96
:103E600040B90090099B404631462A46069CA0472F
:103E700000B92F44149D049C2F6023684F449F4237
:103E800003D901232760CBF80C300BB0BDE8F08FCD
:103E90004A4D4B4C05950694B9F1000FDFF824C14B
:103EA0004C46B8BF09F6FF74BAF1000F55464FEA09
:103EB0002434B8BF0AF6FF7509EA0C0CC4EB2535AB
:103EC000BCF1000F029538DBBCF1000F12D0029D4F
:103ED000002D2FD1C9EB0A0740465946224609ABAF
:103EE000CDF80CC0FFF7B8FEDDF80CC000283DD0BF
:103EF0000027BFE76746029D75B3CDF81CA0DDF82B
:103F000014A00EE040463146099A0123D04700280C
:103F1000B0D1013D07F5805706F5805604F1010444
:103F200018D040465946224609ABFFF795FE0028B7
:103F3000E8D09FE7CCF58057CEE70CF1FF3C6FEA65
:103F40000C5C6FEA1C5C0CF1010CBDE715980BB022
:103F5000BDE8F08FDDF81CA01A4D0AEA0505002D1A
:103F60001ADB002D7FF476AF284683E7099BCDF856
:103F700000C0404631463A46069DA8470028B7D1C2
:103F8000029D002D3FF476AF013D3E440134029581
:103F9000B1E76FF0150078E7013D6FEA05556FEA6C
:103FA00015550135DDE7084840F26221074A084B04
:103FB0000CF0DAFFFD5C00001D5D00000D5D0000EF
:103FC000855D0000FF0F0080C8610100084F0100FF
:103FD000386301002DE9F0410C6884B026899846C9
:103FE000022E074620D1002A1EDBE468A2421BD223
:103FF00003ABFFF731FE044610B104B0BDE8F08119
:1040000038460399FFF7C8FCA8B1039B00943846D3
:1040100041464FF4827201F081FE0028EDD188F80C
:10402000030104B0BDE8F081064840F27911064A68
:10403000064B0CF099FF034840F27F11024A044BF3
:104040000CF092FFC8610100084F010054630100A9
:104050001C6301002DE9F04F804683B01046914665
:104060000F4601930D9D09F02FFDFF283DD84FF419
:10407000827008F0E1FC8246002833D03B68DE689D
:1040800005B12E60002E2ADD0AF1040300240093FE
:1040900004E005B12C600134A64220D040463946E8
:1040A00022465346FFF796FF834688B9DAF8002088
:1040B000002AEED04846009909F044FD0028EAD1D4
:1040C0000C9B03B11C60019B13B1DAF800201A604D
:1040D000504608F0F5FC584603B0BDE8F08F6FF08D
:1040E000010BF5E76FF00B00F6E7034840F2DB1138
:1040F000024A034B0CF038FFC8610100084F010071
:10410000A0630100F0B50D680E46298985B002292B
:104110000746144603933ED1002A3CDBEB689A42E3
:1041200039D84FF4827008F087FC054600282FD05C
:1041300000214FF4827209F0ADFD039B5BB10A9838
:1041400009F0C2FCFF282DD8039B284640F8043B09
:104150000A9909F0D1FC22463146384603ABFFF7F5
:104160007BFD044628B1284608F0AAFC204605B08D
:10417000F0BD38460399FFF70FFCD0B10094039BC4
:10418000384629464FF4827201F0FCFD0446EAE706
:104190006FF00B00EBE70A484FF4C771094A0A4B6E
:1041A0000CF0E2FE06484FF4CB71064A074B0CF0C8
:1041B000DBFE034840F29D11024A054B0CF0D4FE91
:1041C000C8610100084F0100C4630100A063010041
:1041D0001C630100F0B585B0144605460E46FFF796
:1041E000DBFB08B3B4F5806F1ED2A4000027009457
:1041F000284602A904223346039701F08FFD08B92F
:10420000029808B905B0F0BD00943346284603A9CA
:10421000042201F0B7FD04460028F3D12846029994
:10422000FFF74CFC2046EDE703484FF48971034A41
:10423000034B0CF099FE00BFC8610100084F01005C
:1042400010640100F0B50C6885B0E5680E460746BD
:10425000002D3CD06B1E0B2B0BD804EB830529697A
:10426000039100292CD10122E3600020F26005B007
:10427000F0BDA5F10D02B2F5806F0AD2216C02915A
:104280000029F0D0FFF7A6FF0028F0D1E368013B3A
:10429000E9E7626C0292002AE5D003ABA5F20D4576
:1042A0000093AA0A02A90023FFF724FC0028DED10C
:1042B000039902910029E9D03846C5F30902E1E7E4
:1042C000FFF7FCFB00232B61E368013BCBE70348CE
:1042D0004FF4B571024A034B0CF046FEC861010071
:1042E000084F0100446401002DE9F041C56C064609
:1042F000002D7BD0B5F89C2045F279639A4275D1A8
:10430000B0F8402041F237239A4276D1284601F096
:10431000D1FD3369002B77DD013B3361002B3CD1AC
:10432000736C002B7ED1D6F84880B8F1000F79D19C
:1043300033685A89EAB9DC682CB128463146FFF760
:1043400081FF013CF9D1326B736B284653601A60D0
:10435000B26BF36B53601A6001F0B8FD30684389AB
:1043600023B308F0ADFB3046FDF720FF4046BDE823
:10437000F081F368002BE6D0336D002B4BD09B69A6
:10438000002B48D030462B49FDF760FF336D304697
:104390009B699847044610B9D5E76FF00F0428468B
:1043A000A04601F093FD4046BDE8F08128467168C3
:1043B000FFF784FB3068016C99B9476C002FD0D0AF
:1043C00000221446013428463946FFF703FFB4F5AE
:1043D000806F2246F6D128463946FFF76FFB3068DA
:1043E000BFE72846FFF76AFB3068E6E7124840F26D
:1043F0005A41124A124B0CF0B7FD0F4840F25B4194
:104400000E4A104B0CF0B0FD0B484FF48C610B4A78
:104410000D4B0CF0A9FD084840F26C41074A0B4BCC
:104420000CF0A2FD044840F26441044A084B0CF031
:104430009BFD00BF74600100C8610100084F0100CE
:10444000F85F0100D461010058640100246001009C
:1044500070640100B1F1006F38B50D46044619D201
:10446000D8B1B0F8402041F237239A4215D1036801
:104470001B6899420CD9036DB3B19B6CA3B10E4973
:10448000FDF7E4FE236D29469B6C2046984738BD16
:10449000002038BD6FF0150038BD084840F2A1413A
:1044A000074A084B0CF060FD044840F2A341044A5F
:1044B000054B0CF059FD00BF945B0100C861010081
:1044C000084F0100D4610100405B010010B50446B3
:1044D00058B1036D4BB19B693BB10749FDF7B6FE7F
:1044E000236D20469B69984710BD044840F25A212D
:1044F000034A044B0CF038FD74600100C8610100F0
:10450000084F01002460010038B50D460446002123
:104510002846102209F0BEFB04B3236DF3B11B6CD7
:10452000E3B120461449FDF791FE236D20461B6C34
:104530002946984788B9B4F8402041F237239A4277
:1045400013D123685C89DA6819896C60AA601B68DA
:10455000022904BF02331B02EB6038BD074840F25A
:10456000D521074A074B0CF0FFFC04484FF4367185
:10457000034A054B0CF0F8FCCC510100C861010066
:10458000084F01007C510100D4610100F0B5002406
:1045900083B01D46009423460C46FFF7B3FD60B977
:1045A00023681A685AB129684E8946B1771E013AC4
:1045B0000126E6601A60EE604F8103B0F0BD03484B
:1045C0004FF4DE71024A034B0CF0CEFCC8610100CF
:1045D000084F0100AC64010030B583B0069D1C4655
:1045E0005B6800950D46FFF78DFD50B92B680122E1
:1045F000EA601968114419602368E2605A8901323F
:104600005A8103B030BD00BF2DE9F041C56C84B0C4
:1046100004460E46002D5CD0B5F89C2045F2796327
:104620009A4256D1B0F8402041F237239A4249D1FC
:10463000EFF31083DA0729D5876807F00107002F09
:104640003BD104F1140840460AF032FDEFF3108329
:10465000DB0723D5A76807F001075FBBF16804AF4C
:1046600047F8041D4FF0010E214696E80C0028463D
:104670008DE88040FFF7BEFB03990446B1B9404680
:104680000AF012FD204604B0BDE8F0810CF084FD74
:10469000A76807F001070CF07DFDD0E70CF07CFD6A
:1046A000A76807F001070CF075FDD6E7304602F069
:1046B00029FBE4E740460AF0F7FC6FF0010004B084
:1046C000BDE8F08104484FF42E71044A044B0CF00D
:1046D0004BFC10F039FB00BFC8610100084F01001E
:1046E000D46101002DE9F043C56C85B004460E4647
:1046F000002D5DD0B5F89C2045F279639A4257D1E0
:10470000B0F8402041F237239A424AD1EFF31083A8
:10471000DA072AD5876807F00107002F3CD104F19A
:10472000140948460AF0C4FCEFF31083DB0724D5D4
:10473000A36803F00108B8F1000F2AD1F16804AFB3
:1047400047F8041D96E80C002146CDF80480284661
:104750000097FFF74FFB03990446B1B948460AF0AA
:10476000A3FC204605B0BDE8F0830CF015FDA7685A
:1047700007F001070CF00EFDCFE70CF00DFDA3686C
:1047800003F001080CF006FDD5E7304602F0BAFA56
:10479000E4E748460AF088FC6FF0010005B0BDE888
:1047A000F08304484FF42E71034A044B0CF0DCFBF9
:1047B00010F0CAFAC8610100084F0100D46101007D
:1047C000F0B5C56C83B00446002D5BD0B5F89C20D5
:1047D00045F279639A4255D1B0F8402041F237232F
:1047E0009A4248D10368588908B1E06808B903B013
:1047F000F0BDEFF31083DA0719D5A66806F00106BD
:10480000002E35D104F1140738460AF051FCEFF3BD
:104810001083DB0713D5A66806F001062EBBE368FC
:10482000ABB938460AF040FC304603B0F0BD0CF09E
:10483000B3FCA66806F001060CF0ACFCE0E70CF057
:10484000ABFCA66806F001060CF0A4FCE6E7E66007
:1048500094E80A0028460096482201F093FA06469A
:104860000028DED00123E360DBE738460AF01CFCB9
:104870006FF00100BBE707484FF43E71064A074B53
:104880000CF072FB034840F2F721034A044B0CF092
:104890006BFB00BFC8610100084F0100D46101003B
:1048A000F85F01002DE9F041044686B008460D4648
:1048B000164609F009F9FF286AD82846494909F03F
:1048C00041F900285ED02846474909F03BF9002805
:1048D00058D0002E78D0B6F8403041F237229342BB
:1048E00072D132681289022A64D0E76C002F64D03A
:1048F000B7F89C1045F2796291425ED1B4F840203D
:104900009A4268D1EFF31083D90729D5A36803F041
:104910000108B8F1000F41D104F1140840460AF033
:10492000C7FBEFF31083DA0722D5A36803F0010376
:10493000002B30D105AA00930192384621462A4621
:10494000FFF788FB831C2CD0002814BF04466FF0AF
:10495000100440460AF0A8FB204606B0BDE8F081EE
:104960000CF01AFCA36803F001080CF013FCD0E76C
:104970000CF012FCA36803F0010303930CF00AFC93
:10498000039BD5E76FF01004204606B0BDE8F08128
:104990006FF01A04E0E740460AF086FB6FF001046E
:1049A000DAE72146059A009538463346FFF714FEAC
:1049B0000446CEE76FF01404CEE70C4840F25B31BA
:1049C0000B4A0C4B0CF0D0FA084840F25731084A19
:1049D000094B0CF0C9FA05484FF45771044A064BCD
:1049E0000CF0C2FAC8880100E8640100C861010047
:1049F000084F0100F85F0100D46101002DE9F0418A
:104A0000044684B008460D4609F05EF8FF2860D8D9
:104A10002846614909F096F8002854D028465F4995
:104A200009F090F800284ED0E66C002E00F0978038
:104A3000B6F89C2045F279639A4240F09080B4F831
:104A4000402041F237239A4240F08280EFF31083F6
:104A5000D90728D5A76807F00107002F3FD104F137
:104A6000140840460AF024FBEFF31083DA0722D53E
:104A7000A76807F001077FBB02AA3B460192009797
:104A8000304621462A46FFF7E5FA831C2AD0002843
:104A900014BF04466FF0100440460AF005FB2046A0
:104AA00004B0BDE8F0810CF077FBA76807F00107C0
:104AB0000CF070FBD1E70CF06FFBA76807F0010763
:104AC0000CF068FBD7E76FF01004204604B0BDE897
:104AD000F0816FF01A04E2E740460AF0E5FA6FF061
:104AE0000104DCE73046022103AAFFF767F8F8B9B2
:104AF000039F002F3AD0B7F8402041F237239A4263
:104B000034D100953B46029A30462146FFF764FDBA
:104B10003B68054670B15B89002B35D10398436C27
:104B2000012B2AD1836C43BBFDF7CCFB2C46B3E7AA
:104B30000446B1E7626858890121F9605A60226829
:104B400008445881538903980B44E1605381EBE793
:104B500013484FF44E71134A134B0CF005FA1048EA
:104B600040F237310F4A114B0CF0FEF90C4840F27D
:104B700019310C4A0C4B0CF0F7F9094840F21D3181
:104B8000084A0B4B0CF0F0F9054840F21B31054A7E
:104B9000084B0CF0E9F900BFC8880100E864010087
:104BA000C8610100084F0100D4610100F85F0100F5
:104BB00008650100EC640100B1F1006F2DE9F84FC8
:104BC0008946054600F28180C76C002F00F088807E
:104BD000B7F89C2045F279639A4240F08180B0F8A2
:104BE000402041F237239A4273D1D0F800A0BAF89E
:104BF0000830022B7BD0DAF8003001F6FF789942BA
:104C00004FEA183828D0EFF31083DA0743D58468C9
:104C100004F00104002C54D105F1140B58460AF09D
:104C200047FAEFF31083DB073DD5AC6804F00104CD
:104C3000002C43D1DAF80C40A04517D823D3A04567
:104C400063D10123CAF800900026EB6058460AF0B1
:104C50002BFA3046BDE8F88FDAF80C3098454DD184
:104C60000020BDE8F88F0134A04524D038462946FD
:104C700022460023FEF7F0FF06460028F3D0E5E7C2
:104C8000013CA04517D038462946FFF7DBFA064617
:104C90000028F5D0DAE70CF07FFAAC6804F00104E4
:104CA0000CF078FAB6E70CF077FAAC6804F001047F
:104CB0000CF070FABCE7DAF80C40C0E758460AF08E
:104CC000F3F96FF00100BDE8F88F6FF01500BDE853
:104CD000F88F114840F2AE41104A114B0CF044F9E4
:104CE0000D4840F2AD410D4A0E4B0CF03DF90A481B
:104CF0004FF49661094A0C4B0CF036F9064840F225
:104D0000B541064A094B0CF02FF9034840F2CE4159
:104D1000024A074B0CF028F9C8610100084F010056
:104D2000D4610100F85F0100386301004C650100A7
:104D3000646501002DE9F04F044685B04FF48270A0
:104D4000884607F079FE0546002800F0A480E76C4D
:104D5000002F00F0AA80B7F89C2045F279639A42B0
:104D600040F0A380B4F8402041F237239A4240F04B
:104D70009580D8F80430002B74DB13F0FF0F71D14D
:104D800022681E0A136802339E427FD2002E51D041
:104D9000012E15D1041D2046474908F0ADFE002321
:104DA0000093404621464FF48072012301F0C4FF76
:104DB0008346284607F084FE584605B0BDE8F08FCC
:104DC000EFF31083DA073BD5A36803F00109B9F1CB
:104DD000000F53D104F11403184603930AF068F945
:104DE000EFF31083DB0733D5A36803F00103002B37
:104DF00041D12268A6F10209D2F80CA0BAF1000F45
:104E000036DD1E4609E02B6823B1B9F1000F38D01A
:104E100009F1FF390136B2452AD0384621463246DB
:104E20002B46FFF7D7F883460028ECD003980AF00A
:104E30003BF9BEE7041D2046204908F05DFEAEE7C1
:104E40000CF0AAF9A36803F001090CF0A3F9BEE77E
:104E50000CF0A2F9A36803F0010302930CF09AF995
:104E6000029BC4E7284607F02BFE6FF01500A4E76D
:104E70006FF0010BDAE703980AF016F96FF0010BF7
:104E800097E703980AF010F92C1D88E707F018FE41
:104E90006FF0010091E76FF00B008EE7084840F2D9
:104EA0003441084A084B0CF05FF8054840F23341A2
:104EB000044A064B0CF058F8E8640100C888010069
:104EC000C8610100084F0100D4610100F85F0100D2
:104ED0002DE9F043174685B08046894600F0EAFF89
:104EE00038460A21D8F8986007F08EFE06EBC0001D
:104EF000044603E054F8345CAF4232D06468A04208
:104F0000F8D100230393482007F096FD04460028BB
:104F10004AD040463946FEF73FFD002853D00023D3
:104F200000934046214648223B4600F0F7FE0546E6
:104F300000282FD16389002B3FD03A4640462146B6
:104F400003ABFEF745FD054620BB039979B3B1F8E5
:104F5000402041F237239A4229D14046FEF7B4FC63
:104F60000EE0A4F138052846FDF73EF9012804D1EA
:104F700054F8283C013344F8283C0395002DC2D056
:104F8000404600F0A3FF039B0020C9F8003005B0A5
:104F9000BDE8F083204607F093FD404600F096FF01
:104FA000284605B0BDE8F0836FF00B05F5E709482A
:104FB0009621094A094B0BF0D7FF06489221064A71
:104FC000074B0BF0D1FF03488C21034A054B0BF034
:104FD000CBFF00BFC8610100084F0100D461010090
:104FE000D46401001C6301002DE9F04FCB6887B049
:104FF000022B0391044640F2F2804FF4827007F0D6
:105000001BFD0546002800F0EA80E76C002F00F049
:10501000FD80B7F89C2045F279639A4240F0F68013
:10502000B4F8408041F23723984540F0F680039E63
:105030002046F368326802EB0309023B0193FDF757
:10504000D3F86668012E00F0A680291D0291AA46B9
:10505000BB46236858465A6805A9FFF739FF002860
:1050600040F0BA802046FDF72DF9059C002C00F099
:10507000BF80B4F8403041F23722934240F0B8800C
:105080006368B34200F0BB8023681B89022B40F0A9
:10509000B680EFF31083DA073DD5A56805F001056A
:1050A000002D41D104F1140528460AF001F8EFF370
:1050B0001083DB073CD5A36803F00108B8F1000FAB
:1050C00040D12368DF68002F08DC41E0DAF80030C7
:1050D0009E4243D008F10108474539D05846214641
:1050E00042465346FEF776FF0028EFD02A46034695
:1050F000554692465046009309F0D6FF009B204645
:105100000093FDF7DFF8284607F0DAFC009B18460D
:1051100007B0BDE8F08F0CF03FF8A56805F0010579
:105120000CF038F8002DBDD055466FF00103E6E7CE
:105130000CF032F8A36803F001080CF02BF8B8F17A
:10514000000FBED02B461846554609F0ADFFECE7E0
:105150002B4655469A466FF00103CBE7284609F0E7
:10516000A3FF029808F0B0FC019E431CB342054621
:105170003AD8019EC3EB0909F61A484602992A4615
:10518000019608F08BFD2F2309F805306668012E83
:105190007FF45FAF55462046FDF794F8039E4946DD
:1051A000F3683068019E023BC6EB030B5A460130A0
:1051B00008F072FD002403462F2203F8012C039807
:1051C000594603F80B4001F09DFD284607F078FC96
:1051D000204607B0BDE8F08F034655468FE76FF0D5
:1051E0000B0007B0BDE8F08F55466FF00B0386E764
:1051F0000D4840F2F5310D4A0D4B0BF0B5FE0A4853
:1052000040F2F631094A0B4B0BF0AEFE064840F275
:10521000E531064A084B0BF0A7FE034840F2E631A1
:10522000024A034B0BF0A0FEC8610100084F0100C9
:10523000D46101007C650100F85F01002DE9F043B5
:10524000044687B008460E4608F03EFCFF2861D8A9
:1052500030467F4908F076FC002856D030467D491C
:1052600008F070FC002850D0E56C002D00F0D780CD
:10527000B5F89C2045F279639A4240F0D080B4F8AA
:10528000402041F237239A4240F0C280284600F085
:1052900019FEEFF31083DF0727D5A76807F0010792
:1052A000002F5FD104F11408404609F001FFEFF32D
:1052B0001083D80721D5A76807F00107002F4ED12A
:1052C00003AB3246009301972846214604ABFEF714
:1052D000C1FE064608B3404609F0E6FE284600F047
:1052E000FDFD304607B0BDE8F0830BF055FFA76821
:1052F00007F001070BF04EFFD2E70BF04DFFA76858
:1053000007F001070BF046FFD8E76FF0140007B075
:10531000BDE8F0836FF01A00E4E7284605A9049A77
:10532000FFF7D6FD06460028D5D1059F002F00F0D7
:105330008880B7F8402041F237239A4240F08180BC
:105340003B681B89022B10D021463B462846039A16
:10535000FFF71CF906460598FCF7B4FFBBE740468B
:1053600009F0A2FE6FF00106B8E7EFF31083D9074A
:1053700022D5BE6806F001068EBB07F11409484627
:1053800009F096FEEFF31083DA071DD5BE6806F02C
:1053900001060EBB3B681B685BB928462146039A91
:1053A0003B46FFF7F3F80646E0B1484609F07CFEBD
:1053B000D1E76FF01406F8E70BF0EEFEBE6806F0DA
:1053C00001060BF0E7FED7E70BF0E6FEBE6806F03D
:1053D00001060BF0DFFEDCE7484609F065FE6FF0E2
:1053E0000106B8E7EFF31083DB071FD5BB6843F076
:1053F0000103BB6039684B890BB3581E0122236837
:10540000FA6048815989D1B10139E2605981CCE70C
:10541000114840F24951114A114B0BF0A5FD0E48BD
:105420004FF4A9610D4A0F4B0BF09EFD0BF0B4FE3B
:10543000BB6843F00103BB600BF0ACFEDAE70FF092
:1054400075FC054840F22551044A054B0BF08CFDD4
:10545000C8880100E8640100C8610100084F01002C
:10546000D4610100F85F01002DE9F047044686B0E1
:1054700008460D4691469A4608F026FBFF2878D844
:105480002846604908F05EFB00286CD028465E493B
:1054900008F058FB002866D0E66C002E00F09680DD
:1054A000B6F89C2045F279639A4240F08F80B4F8B8
:1054B000402041F237239A4240F08F80EFF310836F
:1054C000D9073ED5A76807F00107002F57D104F18F
:1054D0001408404609F0ECFDEFF31083DA0738D5E5
:1054E000A76807F00107002F46D103AB019300978F
:1054F00004AB304621462A46FEF7ACFD831C41D062
:1055000078BBB9F1000F59D1304605A9049AFFF7CD
:10551000DFFC30BB0598002866D0B0F8402041F28F
:1055200037239A4260D103681B89012B49D1CAF8FD
:1055300000000024404609F0B7FD204606B0BDE853
:10554000F0870BF029FEA76807F001070BF022FE99
:10555000BBE70BF021FEA76807F001070BF01AFE6E
:10556000C1E70446E6E76FF01004204606B0BDE848
:10557000F0876FF01A04E0E7404609F095FD6FF000
:105580000104DAE73046012105AAFEF717FB0028DF
:10559000E7D1059B039A73B3B3F8400041F237217A
:1055A000884228D1214600953046FFF715F8044679
:1055B0000598002CBBD0FCF785FEBBE76FF010040C
:1055C000B8E7FCF77FFE6FF01004B3E70F4840F236
:1055D0000D510F4A0F4B0BF0C7FC0C4840F20E5117
:1055E0000B4A0D4B0BF0C0FC08484FF49D61084A74
:1055F000094B0BF0B9FC054840F2F741044A064B51
:105600000BF0B2FCC8880100E8640100C861010029
:10561000084F0100F85F0100D46101002DE9F04F4F
:10562000044689B008460D4616461F4608F04CFA57
:10563000FF2800F2A980384608F046FAFF2800F259
:10564000A3802846B34908F07DFA002800F0A18025
:105650002846B14908F076FA002800F09A803846CA
:10566000AC4908F06FFA002800F0A0803846AA493B
:1056700008F068FA002800F09980D4F84C80B8F15E
:10568000000F00F03881B8F89C2045F279639A4207
:1056900040F03181B4F8402041F237239A4240F083
:1056A0002381002E00F02E81B6F8402041F23723EE
:1056B0009A4240F02781404600F004FCEFF310834B
:1056C000D80749D5A36803F00109B9F1000F73D1D8
:1056D00004F11409484609F0EBFCEFF31083D907F5
:1056E00042D5A36803F0010BBBF1000F61D1B442B6
:1056F00065D0EFF31083DA073ED5B36803F0010AF3
:10570000BAF1000F78D106F114031846039309F09B
:10571000CFFCEFF31083DB0740D5B36803F0010B38
:10572000BBF1000F65D105AB8DE808084046214666
:105730002A4604ABFEF78EFC8246002846D003982A
:1057400009F0B2FC484609F0AFFC404600F0C6FB49
:10575000504609B0BDE8F08F0BF01EFDA36803F0C2
:1057600001090BF017FDB0E70BF016FDA36803F07D
:10577000010B0BF00FFDB7E70BF00EFDB36803F064
:10578000010A0BF007FDBBE76FF01A0009B0BDE896
:10579000F08F6FF0150009B0BDE8F08F0BF0FCFC46
:1057A000B36803F0010B0BF0F5FCB9E76FF01000E4
:1057B000CFE7484609F078FC6FF0010AC5E72846B4
:1057C000394608F0BFF9D0B9DA46BBE706AA01921C
:1057D000CDF800B05B46404631463A46FEF73AFC0B
:1057E00010F1020F82462AD0002808BF6FF0100A7D
:1057F000A5E7039809F058FC6FF0010AA2E706AB91
:105800000093CDF804B02A464046214607ABFEF788
:1058100021FC8246002895D1CDF800B0CDF804B027
:105820005B46404621463A46FEF714FC10F1020F53
:10583000824650D0002808BF6FF0100A82E7404629
:1058400007A9049AFFF744FB824600287FF477AF4C
:10585000DDF81CC0BCF1000F68D0BCF8402041F25C
:1058600037239A4262D1634640462146059ACDF8D5
:1058700008C0FEF78BFEDDF808C0824638BBDCF8B6
:1058800000301B89022B67D123685989002900F059
:10589000828001390120E060069A404659816346C2
:1058A00000973146CDF808C0FEF796FEDDF808C037
:1058B0008246002841D13268DCF8001054897068B3
:1058C00001230134F3605481CCF80C304860079810
:1058D000FCF7F8FC33E7009721464046069A079B01
:1058E000FEF710FC82462DE70C4840F2C6310C4A08
:1058F0000C4B0BF039FB094840F2C531084A0A4B02
:105900000BF032FB054840F2C731054A054B0BF05E
:105910002BFB00BFC8880100E8640100C8610100DA
:10592000084F0100D4610100F85F01001B4840F2FC
:1059300091311B4A1B4B0BF017FB00956346404609
:105940002146059AFEF748FEE8B9236801215A89E5
:10595000E1600A445A81BAE76346009731464046FF
:10596000069ACDF808C0FEF737FEDDF808C082467B
:105970000028ACD00095214663464046059AFEF7C4
:105980002BFE0028A3D0034640F2A1310348064A6B
:105990000BF012FB9BE70FF0C9F900BFC8610100D3
:1059A000084F0100D4610100B06501002DE9F0430A
:1059B000074685B00C4691469846EFF31080C20723
:1059C00022D58D6805F00105002D38D104F11406AB
:1059D000304609F06DFBEFF31083DB071CD5A5689B
:1059E00005F0010545BB2146009501954A4638461C
:1059F00003ABFEF72FFB0446304609F055FB9CB184
:105A0000204605B0BDE8F0830BF0C6FBA56805F0A5
:105A100001050BF0BFFBD7E70BF0BEFBA56805F057
:105A200001050BF0B7FBDDE738464146039AFFF767
:105A30004FFA05B0BDE8F083304609F035FB6FF052
:105A4000010005B0BDE8F0832DE9F043C76C83B0D9
:105A500006460C469146002F67D0B7F89C2045F2C9
:105A600079639A4261D10B78002B57D02F2B55D0F8
:105A7000FCF7BAFB41F23728B6F84030434546D12F
:105A800033681B89022B02D033E025B32C46204615
:105A9000FDF738FF28490546204608F053F800284E
:105AA000F3D02046254908F04DF8D0B1204608F043
:105AB0000BF8FF2825D822463846314601ABFFF7C0
:105AC00075FF04463046FCF7FDFBC4B9019E15B1D5
:105AD000EEB12C46D0E7C9F80060002003B0BDE865
:105AE000F083336838465A6801A9FFF7F1F9044694
:105AF000E8E73046FCF7E6FB6FF01300EEE72046E0
:105B0000ECE73046FCF7DEFB6FF01A00E6E70C48E6
:105B100040F269510B4A0C4B0BF026FA084840F250
:105B20006651084A094B0BF01FFA054840F26551CF
:105B3000044A074B0BF018FAC8880100E86401001A
:105B4000C8610100084F0100D4610100CC6501006B
:105B5000F85F01002DE9F047C76C82B006460C469D
:105B600092469946002F67D0B7F89C2045F279639A
:105B70009A4261D10B78002B57D02F2B55D0FCF7D0
:105B800033FB41F23728B6F84030434546D13168FF
:105B90000B89022B06D033E020462B4907F0D2FFB9
:105BA00068B92C462046FDF7ADFE05460028F3D126
:105BB000CAF80060C9F8004002B0BDE8F08720468E
:105BC000224907F0BFFF98B1204607F07DFFFF286C
:105BD0001ED822463846314601ABFFF7E7FE0446A1
:105BE0003046FCF76FFB8CB9019EBEB12C46CAE76C
:105BF000336838465A6801A9FFF76AF90446EFE7A7
:105C00003046FCF75FFB6FF01300D5E72046D3E783
:105C10003046FCF757FB6FF01A00CDE70C4840F216
:105C200097510C4A0C4B0BF09FF9094840F29451E4
:105C3000084A0A4B0BF098F9054840F29351054A7F
:105C4000074B0BF091F900BFC8880100E864010020
:105C5000C8610100084F0100D4610100CC6501005A
:105C6000F85F010030B5044685B01D460AB9089BAF
:105C70007BB963689A420CD2130368464FF4805292
:105C800001F038F80146E06A2A46836A984705B071
:105C900030BD03480D21034A034B0BF065F900BFEB
:105CA000EC650100084F0100F86501002DE9F0479F
:105CB0001E4682B00C4615468046DDF828904FF00F
:105CC000010A00F0FBF816B916E0013E14D0214697
:105CD0002A46CDF800A040464B46FFF7C3FF04F527
:105CE0008054013507460028EFD0404600F0F2F816
:105CF000384602B0BDE8F0870027F6E710B500246B
:105D000082B00094FFF7D2FF02B010BD10B501249D
:105D100082B00094FFF7CAFF02B010BD2DE9F04138
:105D200082B0089D8846B5F5805F17461E4604463A
:105D30001CD2AB18B3F5805F18D800F0BFF8012073
:105D4000A16B3246009000232046FFF78BFF0646EA
:105D500028B9A16B40463A46294407F09FFF2046E8
:105D600000F0B8F8304602B0BDE8F08102483721B3
:105D7000024A034B0BF0F8F8EC650100084F0100F4
:105D80002C6601002DE9F04782B00A9D8A46B5F5E0
:105D9000805F91469846044624D2AB18B3F5805FE5
:105DA00020D8012700F08AF8A16B204600974246D0
:105DB0000023FFF757FF064668B9A06B51464A46D5
:105DC000284407F06BFFA16B424600973B462046F4
:105DD000FFF748FF0646204600F07CF8304602B048
:105DE000BDE8F08702484A21024A034B0BF0BCF899
:105DF000EC650100084F01002C66010030B5044637
:105E000083B000F05BF8A06B00214FF4805207F0E4
:105E100041FF2146A06B2C2207F040FF0022A16B1E
:105E2000012300922046FFF71DFF0546204600F0A3
:105E300051F8284603B030BD30B5436883B003F550
:105E4000FF4304467F330021006BDD0BFDF7D8FADA
:105E50000122014600922B4620460222FFF726FF30
